:100000000C9432010C9463010C9463010C94630111
:100010000C9463010C9463010C9463010C946301D0
:100020000C9463010C9463010C9463010C946301C0
:100030000C9463010C9463010C9463010C946301B0
:100040000C9463010C946E070C9463010C9463018F
:100050000C9463010C9463010C9463010C94760579
:100060000C9463010C9463010C9463010C94630180
:100070000C9463010C9463010C9463010C94630170
:100080000C9440070C9463010C9463010C9463017D
:100090000C9463010C9463010C9463010C94C005EF
:1000A0000C9463010C9463010C9412070C9463018B
:1000B0000C9463010C9463010C9463010C94E406AA
:1000C0000C9463010C9463010C9463010C94630120
:1000D0000C9463010C9463010C9463010C94630110
:1000E0000C9463010C94DF020C944B040C940803F1
:1000F0000C94C1010C949A010C94B0010C94380535
:100100000C94D9010C9448020C94CB010C94350347
:100110000C94EE020C94BB010C94D3010C94E701F7
:100120000C94B8010C94AC010C9449020C94B401E9
:100130000C94DD010C9477020C94EB010C94E1011A
:100140000C9401030C949C070C94C5010C9495012C
:100150000C94CF010C94DE020C944A0200002100A2
:10016000240027002A002D00300033000101000088
:10017000040107010A0100002200250028002B00CD
:100180002E003100340002010000050108010B01BE
:1001900005050505070508080808020202020A0A03
:1001A0000808040404040101010101010101030321
:1001B000030303030303040707070C0C0C0C0C0CCC
:1001C0000C0C0202020206060606060606060B0BC9
:1001D0000B0B0B0B0B0B010210202008081020400A
:1001E00010204080020102010804020101020408FB
:1001F0001020408080402010080402018004020189
:1002000080402010080402010804020101020408D1
:1002100010204080010204081020408000000A0BDA
:1002200002090C0D0E080703040100000000000085
:1002300000000000000000000000000000000000BE
:10024000000000000000000012111000000000007B
:10025000000000000000000000000000000000009E
:1002600000009C0711241FBECFEFD1E2DEBFCDBF3F
:1002700000E00CBF12E0A0E0B2E0E6E8F3E100E04D
:100280000BBF02C007900D92AE31B107D9F723E042
:10029000AEE1B2E001C01D92A139B207E1F711E071
:1002A000C2E3D1E000E006C021970109802FFE01E2
:1002B0000E94B909C133D10780E00807A9F70E945D
:1002C000E2070C94C1090C940000282F30E0F901DA
:1002D000E45EFD4F9491F901EA52FE4F449120579C
:1002E0003E4FF9012491222309F435C0992311F1DD
:1002F00091509231F8F4E92FF0E08827ED57FE4F46
:100300008F4F0C94B909B401B8019501AC01B0014B
:100310009A01BB01C101C501CB01CF01D301D901B4
:10032000DD019A01E101E701EB01809180008F7707
:1003300080938000E22FF0E0EE0FFF1FEA58FE4F9F
:10034000A591B4918FB7F894EC91611148C0409594
:100350004E234C938FBF0895809180008F7DE8CF0E
:1003600080918000877FE4CF84B58F7784BDE2CF12
:1003700084B58F7DFBCF8091B0008F778093B000E4
:10038000D9CF8091B0008F7DF9CF809190008F7789
:1003900080939000CFCF809190008F7DF9CF809196
:1003A0009000877FF5CF8091A0008F778093A00089
:1003B000C1CF8091A0008F7DF9CF8091A000877F71
:1003C000F5CF809120018F7780932001B3CF80916A
:1003D00020018F7DF9CF80912001877FF5CF4E2BB3
:1003E000B8CF3FB7F8948091E1029091E202A091DA
:1003F000E302B091E40226B5A89B05C02F3F19F097
:100400000196A11DB11D3FBFBA2FA92F982F882794
:10041000BC01CD01620F711D811D911D42E0660F6F
:10042000771F881F991F4A95D1F708958F929F9241
:10043000AF92BF92CF92DF92EF92FF924B015C019D
:100440000E94F1016B017C010E94F1016C197D0990
:100450008E099F09683E734081059105A8F321E04C
:10046000821A9108A108B10888EEC80E83E0D81E50
:10047000E11CF11C81149104A104B10429F7FF903F
:10048000EF90DF90CF90BF90AF909F908F900895A6
:1004900008950895AF92BF92CF92DF92EF92FF92AC
:1004A0000F931F93CF93DF936C017B018B01040F9C
:1004B000151FEB015E01AE18BF08C017D10759F038
:1004C0006991D601ED91FC910190F081E02DC6017A
:1004D0001995892B79F7C501DF91CF911F910F9164
:1004E000FF90EF90DF90CF90BF90AF900895089568
:1004F00020916302260F3327331F21323105ECF49C
:100500002091AC02FC0190E080E0243069F082E0B0
:100510000895A09163022191AC014D5B5D4FA40F42
:10052000B52FB11D2C930196861798F38091630225
:10053000680F6093630280E0089581E0089510924F
:10054000AC0281E08093AB021092860261E084E10C
:100550000E94650161E085E10E946501E9EBF0E040
:1005600080818E7F808380818D7F808388E48093EB
:10057000B80085E48093BC000895CF93DF9391E0A9
:10058000909342028823B9F0C091B800D091BA008C
:100590008091BC008A7B8093BC0060E084E10E9473
:1005A000650160E085E10E9465010E949F02D09391
:1005B000BA00C093B800DF91CF9108950895E091FB
:1005C000DB028091DA02E81730F4F0E0EE5DFD4FD7
:1005D000808190E008958FEF9FEF08959091DB0266
:1005E0008091DA022FEF3FEF981748F4E92FF0E0FF
:1005F000EE5DFD4F208130E09F5F9093DB02C901EB
:1006000008958091DA029091DB02891B990B08957D
:10061000CF92DF92EF92FF920F931F93CF93DF93CE
:100620007C01CB018A012091B202222389F0EB01E7
:100630006B01C40ED51ECC15DD0569F06991D7019B
:10064000ED91FC910190F081E02DC7011995F3CF58
:10065000642F0E947802C801DF91CF911F910F9102
:10066000FF90EF90DF90CF900895CF93DF931F928C
:10067000CDB7DEB769832091B2022223F9F0209131
:10068000D802203258F021E030E0FC01338322838D
:1006900090E080E00F90DF91CF9108958091D90292
:1006A000E82FF0E0ED54FD4F998190838F5F8093A8
:1006B000D9028093D80281E090E0ECCF61E0CE01D6
:1006C00001960E947802F7CFCF92DF92EF92FF92CD
:1006D0000F931F93CF93DF93FC01C48121E02093FC
:1006E000B202C093D3021092D9021092D80283852D
:1006F000682B85EE92E00E943503D091D802D1326A
:1007000008F092C00E94F1016B017C018091AC0263
:10071000811165C082E08093AC0281E08093AB02DE
:100720008FEF8093AA021092A902D093A802A3EBA4
:10073000B2E0E8E8F2E080E0D81385C010928702CA
:1007400080918702CC0FC82BC093870280918602CC
:10075000813009F07CC0109286020E94F1016B0189
:100760007C01809187028093BB008091AE029091C2
:10077000AF02A091B002B091B102892B8A2B8B2BD2
:1007800099F00E94F1010091AE021091AF02209108
:10079000B0023091B1026C197D098E099F090617CC
:1007A000170728073907E0F18091BC0083FDD9CFF6
:1007B00085EC8093BC000E94F1016B017C0180916B
:1007C000AC02823009F445C08091AA028F3F61F1EA
:1007D0008091AA02803241F18091AA0225C08091C5
:1007E000AE029091AF02A091B002B091B102892BFC
:1007F0008A2B8B2B09F48ACF0E94F1010091AE0263
:100800001091AF022091B0023091B1026C197D09B4
:100810008E099F09061717072807390708F076CFB2
:100820008091AD020E94BD021092D9021092D802AE
:100830001092B202DF91CF911F910F91FF90EF9034
:10084000DF90CF9008959D9191938F5F75CF85EE46
:10085000B0CF8091AE029091AF02A091B002B09162
:10086000B102892B8A2B8B2B09F4A9CF0E94F101AD
:100870000091AE021091AF022091B0023091B1020E
:100880006C197D098E099F09061717072807390774
:1008900008F095CFC5CF90E080E00895AF92BF9269
:1008A000CF92DF92EF92FF920F931F93CF93DF933C
:1008B0006B017A01EC01C25EDD4F28813CE0389F7C
:1008C0008001399F100D1124A0908103B12C27FFC6
:1008D0001FC0FB011182108288818F5F888388810D
:1008E0009801280F311D87FD3A95F6012A153B0521
:1008F0001CF488818C30C4F180819181049680340D
:100900009C4908F473C0F60180819181049670C0FF
:1009100088819801280F311D87FD3A952A153B05DE
:10092000DCF68881A801480F511D87FD5A95FA0110
:10093000EE0FFF1FE40FF51FEF50FD4F808186FF84
:10094000CBCF8881F801E80FF11D87FDFA95CF0123
:10095000EE0FFF1FE80FF91FEF50FD4F808160E0A1
:100960008F730E946501B8CF808191812881A80191
:10097000420F511D27FD5A959A01FA01EE0FFF1FF4
:10098000E20FF31FEF50FD4F21813281820F931F41
:10099000F7019183808388819801280F311D87FD9D
:1009A0003A95F901EE0FFF1FE20FF31FEF50FD4FD5
:1009B000808186FF22C08881080F111D87FD1A954E
:1009C000F801EE0FFF1FE00FF11FEF50FD4F808188
:1009D00061E08F73DF91CF911F910F91FF90EF90A6
:1009E000DF90CF90BF90AF900C94650180E49CE9BC
:1009F000F701918380838FEF8883DF91CF911F91DF
:100A00000F91FF90EF90DF90CF90BF90AF9008953F
:100A10000F931F93CF938C01C62F0E9464036C2FFA
:100A20006460C8010E9464036C2F6B7FC8010E9440
:100A3000640383EC90E00197F1F7CF911F910F9140
:100A400008950F931F93CF93DF938C01D62FC42F5C
:100A5000607F642B0E94080580E1D89FB0011124BB
:100A60006C2BC801DF91CF911F910F910C94080559
:100A700041E00E94210581E090E0089585ED80939A
:100A8000BC008091AE029091AF02A091B002B091F3
:100A9000B1020796A11DB11D23E0B695A7959795C4
:100AA00087952A95D1F72091BC0024FD03C01092B0
:100AB000AC0208954091AE025091AF026091B00235
:100AC0007091B102452B462B472B69F30097A10586
:100AD000B10541F02AE22A95F1F700C00197A1097A
:100AE000B109E1CF8091AD020C94BD021F920F922B
:100AF0000FB60F9211242F933F938F939F93AF9331
:100B0000BF938091DD029091DE02A091DF02B0914F
:100B1000E0023091DC0223E0230F2D3758F50196D7
:100B2000A11DB11D2093DC028093DD029093DE02B3
:100B3000A093DF02B093E0028091E1029091E20283
:100B4000A091E302B091E4020196A11DB11D809332
:100B5000E1029093E202A093E302B093E402BF911A
:100B6000AF919F918F913F912F910F900FBE0F905A
:100B70001F90189526E8230F0296A11DB11DD2CF14
:100B80001F920F920FB60F9211240BB60F922F9354
:100B90003F934F935F936F937F938F939F93AF9305
:100BA000BF93EF93FF938091B900887F803609F45B
:100BB0004DC008F040C0883209F4A9C028F5803142
:100BC00009F49DC0C8F4882309F4FBC0883009F4F7
:100BD00096C0FF91EF91BF91AF919F918F917F91BF
:100BE0006F915F914F913F912F910F900BBE0F909E
:100BF0000FBE0F901F901895883109F488C080327D
:100C000041F78093AA0214C0803409F49DC040F4D7
:100C10008033B9F38833E9F68093AA0285ECB0C03B
:100C2000803509F485C0883509F496C0883489F682
:100C30000E943E05CECF883909F48CC038F588373C
:100C400029F050F4883611F0803719F683E080934C
:100C5000AC021092850257C0883809F47BC08039F5
:100C600019F0803809F0B5CF80918502803208F004
:100C700071C0E091850281E08E0F809385028091A2
:100C8000BB00F0E0EB59FD4F80833DC0803B39F065
:100C9000E0F4803A09F479C0883A09F09ACF84E008
:100CA0008093AC021092640210926302E091D6022B
:100CB000F091D70219958091630281110FC081E0F4
:100CC000809363021092430209C0803C09F4A6CFCE
:100CD000883C09F4A3CF883B09F07BCFE091640204
:100CE00081E08E0F80936402F0E0ED5BFD4F808128
:100CF0008093BB00909164028091630229C080912F
:100D000087028093BB0085EC8093BC0062CF9091FA
:100D1000A9028091A802981758F5E091A90281E0F4
:100D20008E0F8093A902F0E0E857FD4F8081E9CF54
:100D3000E091A90281E08E0F8093A9028091BB000F
:100D4000F0E0E857FD4F80839091A9028091A802BE
:100D50009817C8F285E8D8CFE091A90281E08E0FFC
:100D60008093A9028091BB00F0E0E857FD4F80839B
:100D70008091AB0281115CCF81E08093860284EA8E
:100D80008093BC001092AC0224CF85EC8093BC0011
:100D90001092AC0280918502803230F4E09185029D
:100DA000F0E0EB59FD4F10826091850270E0E09118
:100DB000D402F091D50285E692E019951092850251
:100DC00008CF1092AA0234CF1F920F920FB60F9243
:100DD00011240BB60F922F933F934F935F936F9312
:100DE0007F938F939F93AF93BF93EF93FF9348E2CB
:100DF00051E064E271E090E080E00E944E04FF91D7
:100E0000EF91BF91AF919F918F917F916F915F9182
:100E10004F913F912F910F900BBE0F900FBE0F90EF
:100E20001F9018951F920F920FB60F9211240BB6B8
:100E30000F922F933F934F935F936F937F938F9373
:100E40009F93AF93BF93EF93FF9348EA50E064EA18
:100E500070E083E090E00E944E04FF91EF91BF911B
:100E6000AF919F918F917F916F915F914F913F9142
:100E70002F910F900BBE0F900FBE0F901F901895E3
:100E80001F920F920FB60F9211240BB60F922F9351
:100E90003F934F935F936F937F938F939F93AF9302
:100EA000BF93EF93FF9348E950E064E970E082E07C
:100EB00090E00E944E04FF91EF91BF91AF919F91FE
:100EC0008F917F916F915F914F913F912F910F90F3
:100ED0000BBE0F900FBE0F901F9018951F920F9290
:100EE0000FB60F9211240BB60F922F933F934F938F
:100EF0005F936F937F938F939F93AF93BF93EF9382
:100F0000FF9348E850E064E870E081E090E00E94E0
:100F10004E04FF91EF91BF91AF919F918F917F917F
:100F20006F915F914F913F912F910F900BBE0F905A
:100F30000FBE0F901F9018951092E8021092E702D2
:100F400088EE93E0A0E0B0E08093E9029093EA029B
:100F5000A093EB02B093EC0284E092E09093E6025F
:100F60008093E50280918103803340F591E0980FF2
:100F70009093810380938E0390E0FC01EE0FFF1F9E
:100F8000E80FF91FEF50FD4F88EB9BE092838183C0
:100F9000109285031092840386E192E0909383037C
:100FA000809382038FE38093860380E180938B0399
:100FB00082E080938C0310928D0308958FEF8093CD
:100FC0008E03E6CF789484B5826084BD84B5816059
:100FD00084BD85B5826085BD85B5816085BD809104
:100FE0006E00816080936E0010928100809181007C
:100FF0008260809381008091810081608093810074
:10100000809180008160809380008091B100846035
:101010008093B1008091B00081608093B000809196
:101020009100826080939100809191008160809313
:101030009100809190008160809390008091A10048
:1010400082608093A1008091A10081608093A100C3
:101050008091A00081608093A00080912101826036
:1010600080932101809121018160809321018091F1
:10107000200181608093200180917A0084608093B8
:101080007A0080917A00826080937A0080917A0061
:10109000816080937A0080917A00806880937A00E2
:1010A0001092C10080918E03803308F069C0EFEF89
:1010B000F1E02491E9EBF1E08491882399F090E04C
:1010C000880F991FFC01E45AFE4FA591B491FC01D1
:1010D000EA58FE4F859194918FB7F894EC91E22BEA
:1010E000EC938FBF80918E03282F30E0F901EE0F33
:1010F000FF1FE20FF31FEF50FD4F9081907C99622C
:10110000908310928F03109290032CE0622F0E9424
:10111000AD09829FB001112430E020E0AB01420F05
:10112000531FFA01EE0FFF1FE40FF51FEF50FD4FA5
:10113000908196FD17C02F5F3F4F2C30310571F71E
:10114000813009F0DEC01092800082E0809381003F
:101150001092850010928400B19A80916F00826095
:1011600080936F00E0918E038E2F90E0FC01EE0FD4
:10117000FF1FE80FF91FEF50FD4F808180648083CF
:10118000E0918E0320918F0388E890E0821B910903
:1011900027FD9395880F991F880F991FE03388F4D6
:1011A0000297880F991F4FB7F8942E2F30E0F9015E
:1011B000EE0FFF1FE20FF31FEF50FD4F928381836D
:1011C0004FBF1092DB021092DA021092D9021092F5
:1011D000D8020E949F0288E492E09093D702809305
:1011E000D60289E492E09093D5028093D4021092C3
:1011F000870380918C03823018F098E090938703E6
:1012000080938A0362E370E080E090E00E9416021F
:1012100060918D0382E893E00E94640368EE73E0BE
:1012200080E090E00E94160260E382E893E00E9472
:101230000805CBE4D6E4CE010197F1F760E382E83C
:1012400093E00E9408052197F1F760E382E893E0BC
:101250000E94080583E592E00197F1F760E282E8D9
:1012600093E00E94080560918703606240E082E895
:1012700093E00E94210584E08093880340E06CE0C5
:1012800082E893E00E94210540E061E082E893E07B
:101290000E942105CBE3DFE1CE010197F1F782E067
:1012A0008093890340E066E082E893E00E94210594
:1012B00040E062E082E893E00E942105CE010197C0
:1012C000F1F740E061E082E893E00E942105219778
:1012D000F1F7609188036B7F60938803686040E05A
:1012E00082E893E00E942105C0E0D0E068EE73E060
:1012F00080E090E00E9416022097C1F30E94000057
:10130000F5CF823061F4109290008093910010929A
:1013100095001092940088BB8093710023CF833096
:1013200069F41092A00082E08093A1001092A500C1
:101330001092A40089BB8093720014CF811112CF48
:101340001092200182E080932101109225011092D9
:1013500024018ABB8093730005CF991B79E004C0F8
:10136000991F961708F0961B881F7A95C9F78095E4
:101370000895EE0FFF1F881F8BBF0790F691E02D99
:061380001994F894FFCF60
:1013860000000000350308034B04DE020103EE02F1
:0E139600DF020000000038054A024B04770217
:00000001FF
